:020000040000FA
:060000000A128A110E280D
:10000800FE00030EF0000A08F1007F08F2000A164D
:100018008A116C2C0A128A1111288313DF30FD0013
:100028001E30FE00B030FF00C63084000A168A1564
:100038008C260A128A116830FD001E30FE00183026
:10004800FF00603084000A168A158C260A128A116D
:10005800A0308400C6300A168A1510260A128A11A2
:100068004430840060300A168A1510260A128A1154
:10007800F901FA0183010A128A114228831603132F
:100088005C08E2005D08E3005E08E400E901E90AB3
:10009800E501E101E601E7010A168A111F230A12A8
:1000A8008A11E23083120313A4000030A500A601D0
:1000B8000A168A1179250A128A113130831203131C
:1000C800C1004108F40000300A168A15E4260A1215
:1000D8008A11313083120313C1004108F400013042
:1000E8000A168A15E4260A128A113130831203137C
:1000F800C1004108F40002300A168A15E4260A12E3
:100108008A11313083120313C1004108F40003300F
:100118000A168A15E4260A128A11F40104300A160E
:100128008A15E4260A128A110A3083120313A000E2
:100138000030A1000A168A1576260A128A11740858
:1001480083120313A3007308A2000A168A11DC2382
:100158000A128A11831203132008C100410883166A
:100168000313E80064306802031CBB28BC28C428B9
:10017800633083120313C100410883160313E80098
:100188000A128A1533200A128A1183120313C10036
:10019800410883160313EB00D030DF000730E0007E
:1001A800FF30DF070318E00AFF30E0075F0A031D8E
:1001B800E128600A031DE128E228D4283E306B06B6
:1001C800031DE728E82806298130F3009130F40060
:1001D800E2300A168A15AD270A128A11E230831214
:1001E8000313A4000030A5008316031368088312C4
:1001F8000313C1004108A6000A168A1179250A12BC
:100208008A11B22C3D306B06031D0B290C2942299B
:10021800063065020318112912294229650883123C
:100228000313C1004107C63E840083130008F3008E
:10023800840A00088403F400E2300A168A15AD2700
:100248000A128A11E23083120313A4000030A500B9
:1002580083160313680883120313C1004108A6001C
:100268000A168A1179250A128A110130831203139A
:10027800C100410883160313E507B22C3B306B0617
:10028800031D472948297729650803194C294D2951
:1002980077290130E502650883120313C10041077D
:1002A800C63E840083130008F300840A0008840310
:1002B800F400E2300A168A15AD270A128A11E230D4
:1002C80083120313A4000030A500831603136808E3
:1002D80083120313C1004108A6000A168A11792562
:1002E8000A128A11B22C37306B0603197C297D2932
:1002F80083292F306B06031D82298329D02969039E
:10030800031D87298829D029F30101300A168A118B
:1003180077220A128A11043083120313C2003D3077
:10032800C100C10B9529C20B95295C3083120313B8
:10033800A0009030A1008030C1004108A2000A1638
:100348008A1110220A128A11C63083120313C100BF
:100358004108A70020300A168A159B260A128A111E
:10036800F3010F300A168A1177220A128A11A53072
:1003780083120313C100C10BBF29C22902308312A3
:100388000313C100410883160313E900EA01EA0ACE
:10039800831203131215B22C11306B06031DD529D5
:1003A800D629AF2A04306906031DDB29DC29AF2AC8
:1003B800942AF30101300A168A1177220A128A1147
:1003C8007C3083120313A0009130A1008030C1005B
:1003D8004108A2000A168A1110220A128A1108304E
:1003E80083120313C100410883160313E900083080
:1003F80083120313C100410883160313EA00B22CC9
:10040800F30101300A168A1177220A128A11103074
:1004180083120313C100410883160313E900043053
:1004280083120313C100410883160313EA00B22C98
:100438009330A4009130A500831603136808831233
:100448000313C1004108A6000A168A1179250A1269
:100458008A110A128A1192260A128A11F3010130AE
:100468000A168A1177220A128A110430831203139A
:10047800C100410883160313E900053083120313F2
:10048800C100410883160313EA00B22C9F30A40070
:100498009130A50083160313680883120313C10063
:1004A8004108A6000A168A1179250A128A11F30151
:1004B80001300A168A1177220A128A1140308312F3
:1004C8000313C100410883160313E9001030831297
:1004D8000313C100410883160313EA00B22C9930B4
:1004E800A4009130A5008316031368088312031330
:1004F800C1004108A6000A168A1179250A128A1134
:10050800F30101300A168A1177220A128A11803003
:1005180083120313C100410883160313E900CA2993
:10052800610883120313C100C2014208003A03198B
:100538009E2AB22C4108003A0319DD29013A031911
:10054800042A033A03191C2A013A03194A2A073ACA
:100558000319732AB22C22306B06031DB42AB52A5C
:10056800CB2A043069060319BA2ABB2AC12A0830E3
:100578006906031DC02AC12ACB2AE901E90AF30149
:1005880001300A168A1177220A128A11B22C113008
:100598006B06031DD02AD12AE72A08306906031DF5
:1005A800D62AD72AE72A043083120313C100410848
:1005B80083160313E900F30101300A168A11772222
:1005C8000A128A11B22CB22CF3010C300A168A11C5
:1005D80077220A128A11A53083120313C100C10BB6
:1005E800F32AF62A83160313680883120313C1003B
:1005F8004108AA00E2300A168A111A250A128A113D
:10060800D52C0430C100410883160313E9000530D6
:1006180083120313C100410883160313EA00F30190
:1006280001300A168A1177220A128A1104308312BD
:100638000313C2003D30C100C10B202BC20B202B7D
:10064800F3010C300A168A1177220A128A11A53092
:1006580083120313C100C10B2F2B322BD52C831609
:100668000313E901E90A831203131211F3010C3091
:100678000A168A1177220A128A112B2B8316031362
:100688006A0883120313C1004108A90083160313E3
:100698006B080A128A1536230A128A118312031369
:1006A800C200C3014308003A03195B2BD52C42084A
:1006B800013A0319052B023A0319332BD52C83165B
:1006C80003136A0883120313C1004108A9008316A3
:1006D80003136B080A128A15BE200A128A118312A4
:1006E8000313C200420883160313E100D52C8316B6
:1006F80003136A0883120313C1004108A900831673
:1007080003136B080A128A11DC240A128A11D52CE9
:10071800831603136A080A128A1500200A128A111E
:10072800113A031D982B992B9F2B323083160313F4
:10073800E6000030E7000430831603136A06031D41
:10074800A62BA72BB32B903083120313A400913050
:10075800A500A6010A168A1179250A128A1183169C
:1007680003136708803AFF0080307F02031DBE2B09
:1007780001306602031CC12BC22BD52CFF30831617
:100788000313E6070318E70AFF30E707660867045C
:10079800031DCF2BD02BD52C043083120313C1009B
:1007A800410883160313E900053083120313C100BF
:1007B800410883160313EA00F30101300A168A116F
:1007C80077220A128A119828831603136A0883125B
:1007D8000313C1004108A900831603136B080A120A
:1007E8008A15D8240A128A11113A031DFC2BFD2BF5
:1007F800032C643083160313E6000030E7008316E9
:1008080003136708803AFF0080307F02031D0E2C17
:1008180001306602031C112C122CD52CFF308316D4
:100828000313E6070318E70AFF30E70766086704BB
:10083800031D1F2C202CD52C043083120313C10058
:10084800410883160313E900053083120313C1001E
:10085800410883160313EA00F30101300A168A11CE
:1008680077220A128A119828643083160313E60047
:100878000030E700F3010C300A168A1177220A12B9
:100888008A117D2C0430C100410883160313E90046
:10089800053083120313C100410883160313EA00CD
:1008A800F3010C300A168A1177220A128A11982845
:1008B800831603136A0883120313C1004108A900B1
:1008C800831603136B080A128A15BB210A128A11B0
:1008D80083120313C200C3014308003A0319752C9D
:1008E8007D2C4208033A0319462C123A0319382C76
:1008F8007D2C831603136708803AFF0080307F023F
:10090800031D882C01306602031C8B2C8C2CD52CE3
:10091800FF3083160313E6070318E70AFF30E707DB
:1009280066086704031D992C9A2CD52C0430831271
:100938000313C100410883160313E900053083122D
:100948000313C100410883160313EA00F3010130C1
:100958000A168A1177220A128A1198288316031315
:10096800690883120313C100C2014208003A03193F
:10097800BE2CD52C4108013A0319E82A033A031979
:10098800422B063A0319632B0C3A03197B2B183AAE
:1009980003198C2B503A0319E82BC03A03195C2C25
:1009A800D52C83160313EA0198280A128A110E28F7
:1009B80083120313B800B601620A031DE72C630A09
:1009C800031DE72CE82CF62C3930A0009030A1004C
:1009D800C030AA002A08A2000A168A1110220A1298
:1009E8008A11912E08302906031DFB2CFC2CFE2CA5
:1009F800D101D2015F08031D022D032D062DBD0173
:100A0800BE011D2D0A30F3000030F4006408013ED9
:100A1800F50065080318013E003EF6000A168A1123
:100A2800BF240A128A11740883120313BE007308C4
:100A3800BD0037303806031D222D232D472D5208BF
:100A4800803AAA006308803A2A02031D2D2D620805
:100A580051020318302D312D472D01308312031315
:100A6800D1070318D20A0030D2071530A000903001
:100A7800A100C030AA002A08A2000A168A11102272
:100A88000A128A11712D2F30831203133806031DA1
:100A98004E2D4F2D712D5208803AFF0080307F0275
:100AA800031D582D01305102031C5B2D5C2D712D47
:100AB800FF3083120313D1070318D20AFF30D2077D
:100AC8001530A0009030A100C030AA002A08A2006A
:100AD8000A168A1110220A128A110A30F30000300D
:100AE800F4008312031351083D07F5005208031858
:100AF800520A3E07F6000A168A11BF240A128A1102
:100B0800740883120313BE007308BD00BF01C0013F
:100B18000A3083120313AA002A08F3003D080A16B4
:100B28008A11A2210A128A11831203133F07053E74
:100B3800AB002B08B70037080A128A11D0270A120F
:100B48008A1183120313AA003F082C3E84002A0846
:100B5800831380000130BF070318C00A0030C007A4
:100B68004008803AFF0080307F02031DBD2D0A3007
:100B78003F02031CC02DC12D8C2DC03083120313DE
:100B8800AA002A08A7005108303E0A168A159B2693
:100B98000A128A11C23083120313AA002A08A70076
:100BA8002C080A168A159B260A128A11C33083124A
:100BB8000313AA002A08A7002D080A168A159B26DF
:100BC8000A128A11C43083120313AA002A08A70044
:100BD8003A300A168A159B260A128A11C5308312E2
:100BE8000313AA002A08A7002E080A168A159B26AE
:100BF8000A128A11C63083120313AA002A08A70012
:100C08002F080A168A159B260A128A11C7308312E2
:100C18000313AA002A08A7003A300A168A159B2649
:100C28000A128A11C83083120313AA002A08A700DF
:100C380030080A168A159B260A128A11C9308312AF
:100C48000313AA002A08A70031080A168A159B264A
:100C58000A128A11CB3083120313AA002A08A700AC
:100C680032080A168A159B260A128A11CC3083127A
:100C78000313AA002A08A70033080A168A159B2618
:100C88000A128A11CE3083120313AA002A08A70079
:100C980034080A168A159B260A128A11CF30831245
:100CA8000313AA002A08A70035080A168A159B26E6
:100CB8000A128A11003083120313BC000030BB00F3
:100CC8000030BA000030B900013083120313B907AD
:100CD800003003180130BA07003003180130BB0791
:100CE800003003180130BC073C08031D8A2E3B085E
:100CF800031D8A2E4E303A02031D862E20303902FB
:100D0800031D862E031C892E8A2E682EF3010C30B3
:100D18000A168A1177220A128A110800FF308312F4
:100D28000313B200FF30B300AE01620A031DA02E08
:100D3800630A031DA02EA12EAB2EB130F400903013
:100D4800F5000A168A1587270A128A11CF2F6E30E6
:100D5800F4009130F5000A168A1587270A128A11BD
:100D68000A300A168A1546260A128A110A300A1605
:100D78008A1546260A128A110D300A168A15462641
:100D88000A128A11BF2F013083120313B207031806
:100D9800B30A0030B3075F08031DD32ED42ED72E15
:100DA800B001B101EE2E0A30F3000030F4006408FF
:100DB800013EF50065080318013E003EF6000A16DC
:100DC8008A11BF240A128A11740883120313B1000E
:100DD8007308B0000A30F3000030F400320830071E
:100DE800F50033080318330A3107F6000A168A118A
:100DF800BF240A128A11740883120313B1007308FE
:100E0800B000B401B5010A3083120313A20022080E
:100E1800F30030080A168A11A2210A128A118312D5
:100E280003133407053EA3002308AF002F080A1256
:100E38008A11D0270A128A1183120313A2003408D8
:100E4800243E84002208831380000130B40703186D
:100E5800B50A0030B5073508803AFF0080307F02B8
:100E6800031D382F0A303402031C3B2F3C2F072F59
:100E7800831203133208303E0A168A1546260A12D0
:100E88008A1120300A168A1546260A128A118312F8
:100E9800031324080A168A1546260A128A11831291
:100EA800031325080A168A1546260A128A113A30AB
:100EB8000A168A1546260A128A118312031326086F
:100EC8000A168A1546260A128A118312031327085E
:100ED8000A168A1546260A128A113A300A168A15FF
:100EE80046260A128A118312031328080A168A153D
:100EF80046260A128A118312031329080A168A152C
:100F080046260A128A1120300A168A1546260A121F
:100F18008A11831203132A080A168A1546260A120A
:100F28008A11831203132B080A168A1546260A12F9
:100F38008A1120300A168A1546260A128A11831247
:100F480003132C080A168A1546260A128A118312D8
:100F580003132D080A168A1546260A128A110A3022
:100F68000A168A1546260A128A110D300A168A159B
:100F780046260A128A11831203133308803AA20004
:100F88006308803A2202031DCB2F62083202031C39
:100F9800CE2FCF2FC72E0800F7000A168A15202655
:100FA8000A128A11A0300A168A153B260A128A11DB
:100FB80077080A168A153B260A128A110A168A1514
:100FC80032260A128A11A1300A168A153B260A12FD
:100FD8008A1100300A168A153F270A128A11F6006C
:100FE8007608F8000A168A1529260A128A1178083E
:020FF8000800EF
:10100000F8002A3083120313A0009130A10082302F
:10101000F7007708A2000A168A1110220A128A1510
:10102000443083120313A0009130A100C230F700B6
:101030007708A2000A168A1110220A128A150430B3
:101040007806031D242825283128FF308312031336
:10105000E400FF30E500FF30E200FF30E300113034
:101060003228223008008312031306083F39F300A8
:101070007308F4003F30740603193F2840284E28B7
:101080007A08031D442845284E28FA01FA0AE60189
:10109000E7017408F3007308F900BC283F307406B8
:1010A000031D5328542869287A08031958285928F9
:1010B0006928FA016708803AFF0080307F02031D2B
:1010C00063281E306602031866286728BC28790842
:1010D000BD287A0803196D286E2884286708803A8D
:1010E000FF0080307F02031D77281F30660203183F
:1010F0007A287B288428013083120313E60703181B
:10110000E70A0030E707BC287A08031988288928ED
:10111000A0281F308312031366066704031D91285D
:101120009228A02837307406031D97289828A028F5
:101130000130E6070318E70A0030E7071130BD2841
:101140007A080319A428A528BC281F30831203138A
:1011500066066704031DAD28AE28BC282F30740630
:10116000031DB328B428BC280130E6070318E70A9A
:101170000030E7072230BD283F30080083120313F8
:10118000AD0005302906031DC628C728CD28D30188
:10119000D4010130E0000030E1002F302D06031DA6
:1011A000D228D32805295408803AFF0080307F02D6
:1011B000031DDC28043053020318DF28E02805292A
:1011C000013083120313D3070318D40A0030D40765
:1011D0006108803AFF0080307F02031DF128023051
:1011E00060020318F428F528FD2801308312031348
:1011F000E0070318E10A0030E107F30101300A16A5
:101200008A1177220A128A153E2937308312031376
:101210002D06031D0C290D293E295408803AFF0094
:1012200080307F02031D162901305302031C192947
:101230001A293E29FF3083120313D3070318D40A57
:10124000FF30D4076108803AFF0080307F02031D21
:101250002B2902306002031C2E292F293729FF3049
:1012600083120313E0070318E10AFF30E107F301DB
:1012700001300A168A1177220A128A158312031383
:1012800060036104031D452946297F298030AA0097
:101290002A08A7002A300A168A159B260A128A15E0
:1012A000831203135308AA002A07D23E8400831333
:1012B0000008A000840A00088403A1008230AC006A
:1012C0002C08A2000A168A1110220A128A1583120B
:1012D00003135308AA002A07D43E8400831300088E
:1012E000A000840A00088403A100C230AC002C08CE
:1012F000A2000A168A1110220A128A15B729C030D4
:10130000AA002A08A7002A300A168A159B260A1264
:101310008A15831203135308AA002A07D03E8400BB
:1013200083130008A000840A00088403A10082300F
:10133000AC002C08A2000A168A1110220A128A1583
:10134000831203135308AA002A07D23E8400831392
:101350000008A000840A00088403A100C230AC0089
:101360002C08A2000A168A1110220A128A1583126A
:1013700003135308080083120313AC002903031D51
:10138000C229C329DA292230F3009030F400043056
:10139000F5000030F600B1300A168A1122240A1234
:1013A0008A1583120313CD01CE01D9011E30D50059
:1013B0000030D60055085604031DDF29E029E22934
:1013C0000330352B59080319E629E729E92922308A
:1013D000352B4E08803AFF0080307F02031DF22932
:1013E00004304D020318F529F629062A2730831206
:1013F0000313A0009030A1008030AA002A08A200A8
:101400000A168A1110220A128A159E2A83120313C1
:101410004E08803AFF0080307F02031D112A0430FD
:101420004D02031C142A152A9E2A831203134E0808
:10143000803AFF0080307F02031D202A08304D02D1
:101440000318232A242A9E2A003083120313A000A3
:101450009030A1008030AA002A08A2000A168A1142
:1014600010220A128A159E2A3030AA004D08B13E79
:1014700084002A08831380004D080339C03EAA0067
:101480002A08A7002A300A168A159B260A128A15EE
:10149000013083120313CD070318CE0A0030CE07A4
:1014A0001E30D5000030D60004304D064E04031D1A
:1014B0005A2A5B2AB02A1530A0009030A100C03013
:1014C000AA002A08A2000A168A1110220A128A15F6
:1014D000B02A3130AA004D08B13E84002A08831397
:1014E00080004D080339C03EAA002A08A7002A3010
:1014F0000A168A159B260A128A15013083120313D5
:10150000CD070318CE0A0030CE071E30D5000030BC
:10151000D60004304D064E04031D8F2A902AB02AAF
:101520001530A0009030A100C030AA002A08A20007
:101530000A168A1110220A128A15B02A831203137E
:101540002C08AA00AB012B08003A0319A82AB02ADC
:101550002A082F3A0319342A183A0319692AB02A9B
:101560000830831203134D064E04031DB82AB92A0E
:10157000E729B530AA002A08F3000430F40000304F
:10158000F500B1300A168A1159230A128A15730818
:101590007404031DCC2ACD2A0F2B83160313B90123
:1015A000B53083120313AA002A08F60000300A1689
:1015B0008A1520270A128A15013083120313CD07DA
:1015C0000318CE0A0030CE07F30101300A168A1143
:1015D00077220A128A158F3083120313A0009030ED
:1015E000A1008030AA002A08A2000A168A1110223F
:1015F0000A128A150F3083120313A0009130A10044
:10160000C230AA002A08A2000A168A1110220A1261
:101610008A1583120313D901D90A1130352BF3012E
:1016200001300A168A1177220A128A15A030831215
:101630000313A0009030A1008030AA002A08A20065
:101640000A168A1110220A128A15753083120313A2
:10165000A0009130A100C530AA002A08A2000A16F5
:101660008A1110220A128A15092B0800831203130B
:10167000B1002903031D3D2B3E2B562B3F30AA0002
:101680002A08B1000330AA002A08DD00DE01D701D4
:10169000D80183160313C101C201C301C401C501EE
:1016A000053083120313D5000030D60055085604C8
:1016B000031D5B2B5C2B5E2B0330D72CF3010F300B
:1016C0000A168A1177220A128A15373083120313F9
:1016D0003106031D6C2B6D2B912B04305E02031819
:1016E000722B732B912B0530D5000030D600313092
:1016F000AA005E08C13E84002A08831380005E08A9
:10170000C63EAA002A08A7002A300A168A159B2678
:101710000A128A15013083120313AA002A08DE0771
:10172000B52B2F303106031D962B972BB52B04308C
:101730005E0203189C2B9D2BB52B0530D500003085
:10174000D6003030AA005E08C13E84002A08831308
:1017500080005E08C63EAA002A08A7002A300A16A2
:101760008A159B260A128A158A2B04305E06031DF1
:10177000BA2BBB2BD62C2C300A168A15D4270A126A
:101780008A152C3083120313AA002A08F300C130F3
:101790000A168A11B7210A128A1573087404031DE8
:1017A000D22BD32BD52B0130D72C0130831203132E
:1017B000DD02031DDC2BDD2B592CF3010C300A1646
:1017C0008A1177220A128A15F30101300A168A114A
:1017D00077220A128A15043083120313AB003D30BE
:1017E000AA00AA0BF12BAB0BF12BD23083120313FF
:1017F000A0009030A1008030AA002A08A2000A169A
:101800008A1110220A128A157E3083120313A00057
:101810009030A100C030AA002A08A2000A168A113E
:1018200010220A128A153C3083120313D7000030AD
:10183000D8004C2CCB30AA002A08A7000A30F300AD
:101840000030F4005808F6005708F5000A168A110F
:1018500041260A128A157308303E0A168A159B26FD
:101860000A128A15CC3083120313AA002A08A70093
:101870000A30F3000030F4005808F6005708F5006D
:101880000A168A11BF240A128A157308303E0A16F6
:101890008A159B260A128A158312031357085804C7
:1018A000031D532C542C1A2C0330AA002A08DD00E7
:1018B000AF2CF30101300A168A1177220A128A1519
:1018C000043083120313AB003D30AA00AA0B662C30
:1018D000AB0B662CF3010C300A168A1177220A1220
:1018E0008A15A53083120313AA00AA0B752C782C35
:1018F0004B3083120313A0009030A1008030AA0067
:101900002A08A2000A168A1110220A128A15C0306B
:1019100083120313AA002A08A7005D08303E0A16A6
:101920008A159B260A128A15E23083120313A0003F
:101930009030A100C230AA002A08A2000A168A111B
:1019400010220A128A15033083120313D7000030C5
:10195000D80057085804031DAE2CAF2CA92CF30156
:1019600001300A168A1177220A128A15043083126E
:101970000313AB003D30AA00AA0BBC2CAB0BBC2C54
:101980005C3083120313A0009030A1008030AA00C5
:101990002A08A2000A168A1110220A128A15831236
:1019A0000313DE010530D5000030D60010300800EA
:1019B00083120313B20010302906031DE02CE12C22
:1019C000722D0A168A118B270A128A150F30831678
:1019D00003133B0583120313AA00831603133A086B
:1019E0000F3983120313AB00AC012B08F3002C0852
:1019F000F4000A30F5000030F6000A168A15622756
:101A00000A128A15831203132A087307C4000030D0
:101A1000031801307407C5000F30831603133D050A
:101A200083120313AA00831603133C080F39831291
:101A30000313AB00AC012B08F3002C08F4000A30B0
:101A4000F5000030F6000A168A1562270A128A1578
:101A5000831203132A087307C600003003180130ED
:101A60007407C7000F30831603133F058312031357
:101A7000AA00831603133E080F3983120313AB0029
:101A8000AC012B08F3002C08F4000A30F5000030FC
:101A9000F6000A168A1562270A128A1583120313A2
:101AA0002A087307C8000030031801307407C90002
:101AB000C230A0009030A1008030AA002A08A20005
:101AC0000A168A1110220A128A1502308312031391
:101AD000CF000030D000DC01DB013F30AA002A0833
:101AE000B200DA015A080319762D772D792D2230AC
:101AF000FF2F37303206031D7E2D7F2D8A2D4F0894
:101B0000AA002A07443E8400013083138007840A18
:101B10000318800A2F303206031D8F2D902DA72D1C
:101B20000330F3000030F4004F08013EF500500888
:101B30000318013E003EF6000A168A11BF240A125D
:101B40008A15740883120313D0007308CF00113074
:101B50003206031DAC2DAD2DCF2E0A168A118B2710
:101B60000A128A150A30F3000030F40083120313BE
:101B70004508F6004408F5000A168A11E5220A1203
:101B80008A15730883120313AA007408AB000A3085
:101B9000A0000030A1004508A3004408A2000A16D6
:101BA0008A11DC230A128A15831203132008AC0061
:101BB00003300310AC0DFF3E031DD92D03102C0D77
:101BC0002A04AD002D08B3004A08C0393304AA0026
:101BD0002A08CA004A08AA002A08F40002300A1695
:101BE0008A1502270A128A150A30F3000030F40021
:101BF000831203134708F6004608F5000A168A11F7
:101C0000E5220A128A15730883120313AA007408C6
:101C1000AB000A30A0000030A1004708A30046082E
:101C2000A2000A168A11DC230A128A1583120313F2
:101C30002008AC0003300310AC0DFF3E031D1B2E2B
:101C400003102C0D2A04AD002D08B3004B08803979
:101C50003304AA002A08CB004B08AA002A08F40083
:101C600001300A168A1502270A128A150A30F30073
:101C70000030F400831203134908F6004808F50009
:101C80000A168A11E5220A128A15730883120313B1
:101C9000AA007408AB000A30A0000030A100490877
:101CA000A3004808A2000A168A11DC230A128A152A
:101CB000831203132008AC0003300310AC0DFF3E69
:101CC000031D5D2E03102C0D2A04AD002D08B3005A
:101CD0004C0880393304AA002A08CC004C08AA001A
:101CE0002A08F40000300A168A1502270A128A15FB
:101CF000F30101300A168A1177220A128A151D3063
:101D000083120313A0009130A1008230AA002A0898
:101D1000A2000A168A1110220A128A15373083127D
:101D20000313A0009130A100C230AA002A08A2002B
:101D30000A168A1110220A128A1500308312031320
:101D4000B1000030B0000030AF000030AE00013014
:101D500083120313AE07003003180130AF070030C1
:101D600003180130B007003003180130B107310803
:101D7000031DC92E3008031DC92E4E302F02031D2E
:101D8000C52E20302E02031DC52E031CC82EC92EC1
:101D9000A72E83120313DA01DA0A1130FF2F003065
:101DA0004502183003194402031CD72ED82EDA2E10
:101DB000C401C501003047023C3003194602031C30
:101DC000E22EE32EE52EC601C701003049023C3069
:101DD00003194802031CED2EEE2EF02EC801C90196
:101DE0000130AA002A08DC0733305C06031DF92EF7
:101DF000FA2E772DDC015B080319FF2E012F01302D
:101E0000022F0030AA002A08DB00C030AA002A08EE
:101E1000A7000A30A0000030A1004508A300440834
:101E2000A2000A168A11DC230A128A1583120313F0
:101E30002008303E0A168A159B260A128A15C130E0
:101E400083120313AA002A08A7000A30F300003007
:101E5000F4004508F6004408F5000A168A11E52248
:101E60000A128A157308303E0A168A159B260A1232
:101E70008A15C23083120313AA002A08A7003A3039
:101E80000A168A159B260A128A15C3308312031379
:101E9000AA002A08A7000A30A0000030A1004708C5
:101EA000A3004608A2000A168A11DC230A128A152A
:101EB000831203132008303E0A168A159B260A1245
:101EC0008A15C43083120313AA002A08A7000A3017
:101ED000F3000030F4004708F6004608F5000A1643
:101EE0008A11E5220A128A157308303E0A168A15ED
:101EF0009B260A128A15C53083120313AA002A08EA
:101F0000A7003A300A168A159B260A128A15C6308F
:101F100083120313AA002A08A7000A30A000003089
:101F2000A1004908A3004808A2000A168A11DC2370
:101F30000A128A15831203132008303E0A168A15E6
:101F40009B260A128A15C73083120313AA002A0897
:101F5000A7000A30F3000030F4004908F6004808F2
:101F6000F5000A168A11E5220A128A157308303E16
:101F70000A168A159B260A128A15831203135B0818
:101F80000319C32FC42F772DEF2F2430A0009030DA
:101F9000A100C030AA002A08A2000A168A11102245
:101FA0000A128A15772D2430A0009030A100C3308A
:101FB000AA002A08A2000A168A1110220A128A15FB
:101FC000772D2430A0009030A100C630AA002A0846
:101FD000A2000A168A1110220A128A15772D5008BB
:101FE000003A0319F42F772D4F08003A0319C52F33
:101FF000013A0319D32F033A0319E12F772D080073
:1020000052346534203465346E347434653472343B
:1020100020346E346534773420347034773464344B
:102020002034203420342034003420342034203430
:102030002034203420342034203420342034203400
:1020400020342034203420342034203400344534EB
:102050006E3474346534723420346E3465347734BD
:1020600020347034773464342034203420342034E5
:1020700000344E346F3420346C346F34673473342E
:10208000203461347634613469346C3461346234C0
:102090006C34653400342034573452344F344E3469
:1020A00047342034503441345334533457344F344C
:1020B0005234443420340034203445344E345434C3
:1020C000453452342034503441345334533457342B
:1020D0004F345234443420340034203420345434C7
:1020E00049344D34453420342034203420342034D5
:1020F0004534203420345334503400347734613440
:1021000069347434203466346F34723420342E349D
:102110002E34363430347334653463340034503400
:1021200061347334733477346F34723464342034EC
:102130006334683461346E34673465346434003435
:10214000503461347334733477346F34723464349C
:10215000203420346334683461346E346734653439
:1021600000344E346F3420346C346F34673473343D
:1021700020346134763461346934613462346C34CF
:1021800065340034543469346D3465342034283473
:10219000483448343A344D344D343A34533453345B
:1021A0002934003459346F34753420346134723436
:1021B0006534203462346C346F3463346B3465348A
:1021C0006434003461347434743465346D34703480
:1021D00074342034723465346D34613469346E344F
:1021E000733400344334683461346E346734653496
:1021F000503461347334733477346F3472346434EC
:10220000003444346F3477346E346C346F3461345A
:10221000643420344C346F346734203400347334E5
:1022200075346334633465347334733466347534AD
:102230006C346C34793420340034543469346D3463
:10224000653420346334683461346E346734653403
:10225000643400344C346F34673473342034633462
:102260006C3465346134723465346434003453340E
:10227000753463346334653473347334663475345D
:102280006C346C34793400347334753463346334AF
:10229000653473347334663475346C346C34793427
:1022A00000345334653474342034543469346D3418
:1022B00065342034003443346C3465346134723412
:1022C00020344C346F346734003456346934653408
:1022D000773420344C346F34673400344C346F34EA
:1022E0006734733420343A340034663461346934EA
:1022F0006C346534643400344C346F346734733474
:10230000003443342034003447343134003447340B
:1023100032340034473433340034473434340034F6
:1023200043344C34003444344C34003447344E3459
:10233000003443345034003447345234003443348E
:1023400054340034F600F501761CA729A829AC29DD
:102350007308F4007408F5070310F30D0310F60C6E
:102360007608031DB429B529A4297508080083122D
:102370000313A100C3290130F5007508A10701303E
:10238000F5007508F3077308840083130008F5004F
:10239000210884000008F60075087602F700770827
:1023A000A0002008031DD529D629DD292108840095
:1023B0000008031DDC29DD29BB292008F300F401F6
:1023C000F31BF4030800F7000A168A1520260A16E4
:1023D0008A11D0300A168A153B260A168A11770808
:1023E0000A168A153B260A168A110A168A153226FB
:1023F0000A168A11D1300A168A153B260A168A1146
:1024000000300A168A153F270A168A11F600760848
:10241000F8000A168A1529260A168A117808080073
:10242000F3018312031322080A168A1177220A166F
:102430008A11322AF301F30A2108FF0020088400E0
:102440000A168A1500200A168A110A168A1177229E
:102450000A168A11013083120313A0070318A10A78
:102460000030A107831203132108FF002008840015
:102470000A168A1500200A168A11003A031D412AFD
:10248000422A1A2A08008312031394152808AC0064
:102490002908AD002A08AE002B08AF000230031057
:1024A000AC0DAD0DAE0DAF0DFF3E031D4F2A2F0835
:1024B000A3002E08A2002D08A1002C08A0000130C6
:1024C000A7003130A6002D30A5000030A4000A1668
:1024D0008A11D9250A168A11831203132008FF3E98
:1024E0008316031393008312031394160800F60057
:1024F00073187B2A7F2A831203130915822A8312F9
:10250000031309117608F03988008914A630F40005
:10251000F40B882A000083120313891076080F3900
:10252000F40003300310F40DFF3E031D922A031044
:10253000740D88008914A630F400F40B9D2A000065
:102540008312031389101B30F5009E30F400F40B46
:10255000A72AF50BA72A0000080083120313981777
:1025600083160313181598168312031318162808D8
:10257000AC002908AD002A08AE002B08AF000430DB
:102580000310AC0DAD0DAE0DAF0DFF3E031DC02A07
:102590002F08A3002E08A2002D08A1002C08A000DF
:1025A0000130A7003130A6002D30A5000030A40076
:1025B0000A168A11D9250A168A11831203132008D4
:1025C000FF3E83160313990008007308740403196F
:1025D000EA2AEB2A1A2BF801F80AF92A013003102B
:1025E000F30DF40DFF3E031DEF2A0130F7007708CD
:1025F000F807F41FFC2AFD2AEE2A74087602031D50
:10260000032B73087502031C062B072B0D2B730875
:10261000F5027408031CF603F60201300310F40CF3
:10262000F30CFF3E031D0E2B0130F802031D192B86
:102630001A2BFD2A7608F4007508F30008000A1624
:102640008A1551260A168A11003083120313AB0033
:102650000130AA008630A900A030A8000A168A110D
:1026600043220A168A110A168A15C9260A168A11E1
:102670000A168A1509260A168A110A168A150326C9
:102680000A168A110A168A1569260A168A11003056
:1026900083120313AB000030AA002530A90080305C
:1026A000A8000A168A11AD220A168A118B170B1779
:1026B0000800F800862B78088400831300080319AB
:1026C000622B632B6F2B730884000008F6007808D8
:1026D00084000008760603196E2B6F2B7E2B73087F
:1026E00084000008F600780884000008F7007608E7
:1026F0007702F300F401031CF403962B0130F6007B
:102700007608F8070130F6007608F3070130F40286
:102710000030031CF503F502740A031D932B750AA0
:10272000031D932B942B5B2BF301F4010800013064
:1027300083120313E4070318E50A0030E5070A30A3
:1027400064066504031DA52BA62BAA2BE401E50155
:10275000DF01DF0A0A30A0002008F30064080A162F
:102760008A11A2210A168A11053E83120313A100C1
:102770002108A200A630A0002008F60022080A16B0
:102780008A1520270A168A11831203136308803AD8
:10279000FF0080307F02031DCF2B09306202031837
:1027A000D22BD32BDB2B013083120313E207031848
:1027B000E30A0030E307080083120313A501A60112
:1027C000200821040319E52BE62B1D2CA401A40AE3
:1027D000F42B01300310A00DA10DFF3E031DEA2BC9
:1027E0000130F7007708A407A11FF72BF82BE92B7E
:1027F00001300310A50DA60DFF3E031DF92B210886
:102800002302031D052C20082202031C082C092C7E
:10281000102C2008A2022108031CA303A3022514E4
:1028200001300310A10CA00CFF3E031D112C013040
:10283000A402031D1C2C1D2CF82B2608A100250822
:10284000A0000800F700770883120313A0002008F7
:10285000F8004E2C0130F5020030031CF603F6029E
:102860007408A1007308A000F30A0319F40A2108F0
:10287000FF00200884000A168A1500200A168A1113
:10288000A200780884000130F80722088313800032
:102890000008031D4C2C4D2C4E2C5D2C7508760425
:1028A000031D532C542C2A2C5D2C78088400831390
:1028B00080010130A0002008F8070130F502003047
:1028C000031CF603F602750A031D6A2C760A031D23
:1028D0006A2C6B2C552C0800831203138C1C712C52
:1028E000722CB62C013083160313A0070318A10A1B
:1028F0000030A107E2302006043003192106031D31
:10290000822C832CB32CA001A1018312031358083D
:10291000803AFF0080307F02031D902C0130570267
:10292000031C932C942C9C2CFF3083120313D70789
:102930000318D80AFF30D807831203135608803AC9
:10294000FF0080307F02031DA72C01305502031CBD
:10295000AA2CAB2CB32CFF3083120313D50703181A
:10296000D60AFF30D607831203138C107208FF00BB
:1029700071088A00700E8300FE0E7E0E090083121D
:102980000313A101F61FC52CC62CCD2CF509F609A1
:10299000F50A0319F60AA101A10AF41FD02CD12CC3
:1029A000D62CF309F409F30A0319F40A7308740422
:1029B0000319DB2CDC2C0B2DA001A00AEA2C013022
:1029C0000310F30DF40DFF3E031DE02C0130F70062
:1029D0007708A007F41FED2CEE2CDF2C740876028C
:1029E000031DF42C73087502031CF72CF82CFE2C25
:1029F0007308F5027408031CF603F6020130031095
:102A0000F40CF30CFF3E031DFF2C0130A002031D4C
:102A10000A2D0B2DEE2C210803190F2D102D152D2D
:102A2000F509F609F50A0319F60A7608F40075089F
:102A3000F300080083120313AE006D30A000903045
:102A4000A1008030AB002B08A2000A168A111022C8
:102A50000A168A11831203132E08A0000030A10069
:102A6000CB30AB002B08A2000A168A1110220A16DE
:102A70008A11CE3083120313AB002B08A7000A3053
:102A8000F3000030F4002A08AC00AD012C08F5007A
:102A90002D08F6000A168A1141260A168A117308B3
:102AA000303E0A168A159B260A168A11CF308312E9
:102AB0000313AB002B08A7000A30F3000030F4002A
:102AC0002A08AC00AD012C08F5002D08F6000A1606
:102AD0008A11BF240A168A117308303E0A168A1515
:102AE0009B260A168A110A168A1119270A168A11B4
:102AF00008000A168A118B270A168A11BA30F300C9
:102B00000030F4000630F5000030F600A6300A165A
:102B10008A1122240A168A11831203132408F3004F
:102B20002508F4000230F5000030F600AC300A163B
:102B30008A1122240A168A110A30F3000030F400A8
:102B4000831203132608A700A8012708F500280808
:102B5000F6000A168A1141260A168A117308303EB9
:102B600083120313A900290883160313AE000A3049
:102B7000F3000030F400831203132608A700A80115
:102B80002708F5002808F6000A168A11BF240A163D
:102B90008A117308303E83120313A9002908831693
:102BA0000313AF00B0010A168A1197230A168A117F
:102BB00008000030F7000030F6000030F50000306B
:102BC000F4008312031323082204210420040319B0
:102BD000EA2DEB2D382EF801F80AFB2D0130F30019
:102BE0000310A00DA10DA20DA30DF30BF02D0130CC
:102BF000F3007308F807A31FFE2DFF2DEE2D013003
:102C0000F3000310F40DF50DF60DF70DF30B012E87
:102C100023082702031D162E22082602031D162E46
:102C200021082502031D162E20082402031C192E3C
:102C30001A2E292E2008A4022108031C210FA50208
:102C40002208031C220FA6022308031C230FA7023D
:102C5000741401300310A30CA20CA10CA00CFF3EB5
:102C6000031D2A2E0130F802031D372E382EFF2DAA
:102C70007708A3007608A2007508A1007408A000D8
:102C8000080083120313A101F41F472E482E4F2E74
:102C9000F309F409F30A0319F40AA101A10AF61FC2
:102CA000522E532E5C2EF509F609F50A0319F60A81
:102CB0000130F7007708A106A201A301730874048C
:102CC0000319632E642E9B2EA001A00A722E0130E0
:102CD0000310F30DF40DFF3E031D682E0130F700C5
:102CE0007708A007F41F752E762E672E013003108B
:102CF000A20DA30DFF3E031D772E74087602031D5F
:102D0000832E73087502031C862E872E8E2E730861
:102D1000F5027408031CF603F602221401300310B6
:102D2000F40CF30CFF3E031D8F2E0130A002031D97
:102D30009A2E9B2E762E210803199F2EA02EA52EAB
:102D4000A209A309A20A0319A30A2308F40022086E
:102D5000F3000800C330F800CD30F700F70BAE2EBB
:102D6000F80BAE2EF30133300A168A1177220A16B9
:102D70008A111B30F8009E30F700F70BBD2EF80BC0
:102D8000BD2E0000F30133300A168A1177220A168D
:102D90008A11A630F700F70BCB2E0000F301333079
:102DA0000A168A1177220A168A11D62ED72E00000B
:102DB000F30102300A168A1177220A168A11A63008
:102DC000F700F70BE12E0000F30128300A168A11F4
:102DD00077220A168A11A630F700F70BED2E0000B5
:102DE000F30101300A168A1177220A168A1104307B
:102DF000F8003D30F700F70BFB2EF80BFB2E002FF1
:102E0000F3010C300A168A1177220A168A11A630AD
:102E1000F700F70B092F0000F3010F300A168A1193
:102E200077220A168A11A630F700F70B152F00003B
:102E300008000A168A118B270A168A11C2308312DB
:102E40000313A9002908A700831603133A080A16DA
:102E50008A159B260A168A11C33083120313A90010
:102E60002908A700831603133B080A168A159B2618
:102E70000A168A11C43083120313A9002908A70077
:102E80003A300A168A159B260A168A11C530831213
:102E90000313A9002908A700831603133C080A1688
:102EA0008A159B260A168A11C63083120313A900BD
:102EB0002908A700831603133D080A168A159B26C6
:102EC0000A168A11C73083120313A9002908A70024
:102ED0003A300A168A159B260A168A11C8308312C0
:102EE0000313A9002908A700831603133E080A1636
:102EF0008A159B260A168A11C93083120313A9006A
:102F00002908A700831603133F080A168A159B2673
:102F10000A168A11080002300A168A11E3210A16DD
:102F20008A1183120313A0002008CA0001300A1678
:102F30008A11E3210A168A1183120313A0002008C4
:102F4000CB0000300A168A11E3210A168A11831277
:102F50000313A0002008CC004A08A000043003108E
:102F6000A00CFF3E031DAF2F20080339303EA10007
:102F7000210883160313BA00831203134A080F397A
:102F8000303EA000200883160313BB0083120313F6
:102F90004B08A00004300310A00CFF3E031DCB2FF4
:102FA00020080739303EA100210883160313BC0016
:102FB000831203134B080F39303EA00020088316FC
:102FC0000313BD00831203134C08A0000430031048
:102FD000A00CFF3E031DE72F20080739303EA1005B
:102FE000210883160313BE00831203134C080F3904
:102FF000303EA000200883160313BF00C001080064
:10300000FF1B0A2883137F1883170008840A0319FB
:10301000FF0A08007F087F398A000408840A031920
:04302000FF0A820021
:103C06008316031306083F3886000800831603133D
:103C16009F17831203131F14080064008001840A8F
:103C26000406031900340406112E01340034FF344F
:103C3600FF34FF34FF34013400340A168A155C263B
:103C46000A168A1583160313111408000A168A1514
:103C56005C260A168A1583160313111508000A1620
:103C66008A155C260A168A15831603139114080012
:103C7600F3000A168A155C260A168A15730883123B
:103C8600031393000800F3007308831203139900CB
:103C96000C1E4E2E4F2E4B2E0C12080083160313AD
:103CA6008801091189100A168A11AA260A168A1588
:103CB6000800831603131419612E622E5C2E110858
:103CC6001F39031D672E682E5C2E0800831203130E
:103CD60012149214FA308316031392008C14831272
:103CE600031312110800831203131F151F197C2ECC
:103CF6007D2E792E1E08F600831603131E08F50086
:103D06007608F4007508F30008007E088A007F082C
:103D160082000A168A1588260A168A158000840AE1
:103D260004087D0603190034FF0A0319FE0A8C2EC7
:103D360083120313A800F30127080A168A117722B3
:103D46000A168A15F301F30A8312031328080A16C2
:103D56008A1177220A168A150800963491349C3403
:103D6600913484349134873491348A3491348D3447
:103D76009134653491345B34913401349134513447
:103D86009134F23490344F344E34003400300A16F5
:103D96008A11E3210A168A1583120313A00020084C
:103DA600A10021087F39A0002008A1002108A00059
:103DB6002008F40000300A168A1502270A168A150A
:103DC6000800F5000A168A1520260A168A15A0305C
:103DD6000A168A153B260A168A1575080A168A15C2
:103DE6003B260A168A1574080A168A153B260A16F1
:103DF6008A150A168A1529260A168A150800F50054
:103E06000A168A1520260A168A15D0300A168A1529
:103E16003B260A168A1575080A168A153B260A16BF
:103E26008A1574080A168A153B260A168A150A1672
:103E36008A1529260A168A150800F800362F7608EC
:103E460084000008F7007708F40078080A168A1537
:103E5600E4260A168A150130F7007708F6070130BE
:103E6600F7007708F8077608840083130008031D17
:103E76003D2F3E2F222F0800F4000A168A155C26D5
:103E86000A168A158316031391150A168A155C26D7
:103E96000A168A15831203131308F3007308F50034
:103EA6007403031D572F582F5C2F83160313911687
:103EB6005F2F831603139112111675080800F70178
:103EC600F801731C672F682F6E2F7508F707031804
:103ED600F80A7608F80701300310F50DF60DFF3ED7
:103EE600031D6F2F01300310F40CF30CFF3E031D6E
:103EF600762F73087404031D812F822F642F780890
:103F0600F4007708F30008009C2F7508FF0074087A
:103F160084000A168A1500200A168A150A168A15BA
:103F260046260A168A150130F4070318F50A0030EA
:103F3600F507750883120313FF00740884000A1638
:103F46008A1500200A168A15003A031DAB2FAC2FDE
:103F5600882F0800F7007708F5007508F600BD2FD2
:103F66000130F5007508F6070130F3070318F40A67
:103F76000030F407740883120313FF0073088400EB
:103F86000A168A1500200A168A15F5007608840096
:103F96007508831380000008031DD22FD32FB32F7B
:103FA600080083120313A200A301A40183120313C2
:103FB60023080A128A11D0270A168A1583120313B8
:103FC600A00023082207A1002108840020088313EB
:103FD60080000130A3070318A40A0030A4072408B0
:103FE600803AFF0080307F02031DFB2F053023023D
:0A3FF600031CFE2FFF2FD92F080037
:02400E00FB3F76
:00000001FF
